:020000040800F2
:1000000000500020491D0008651C00086B1C0008FA
:10001000711C0008771C00087D1C0008000000000F
:10002000000000000000000000000000A1460008E1
:10003000831C00080000000071480008B94800084F
:10004000911D0008911D0008911D0008911D0008D8
:10005000911D0008911D0008911C0008911D0008C9
:10006000911D0008911D0008911D0008911D0008B8
:10007000911D0008911D0008911D0008911D0008A8
:10008000911D0008911D0008911D0008911D000898
:10009000911D0008911D0008911D0008911D000888
:1000A000911D0008A91C0008911D0008911D000861
:1000B000911D0008911D0008911D0008911D000868
:1000C000911D0008911D0008911D0008911D000858
:1000D000911D0008911D0008BD1C0008911D00081D
:1000E000911D0008911D0008911D000800000000EE
:1000F0000000000000000000000000000000000000
:0C01000000000000000000005FF808F1A3
:1001100010B5054C237833B9044B13B10448AFF341
:1001200000800123237010BDE401002000000000C6
:100130004860000808B5034B1BB103490348AFF3FF
:10014000008008BD00000000E801002048600008B1
:1001500010F8012B11F8013B012A28BF9A42F7D071
:10016000D01A7047034613F8012B002AFBD1181A46
:100170000138704780B485B000AFF860B9607A602C
:10018000FB68064A1A60BB68054A1A607B688022D1
:100190001A6000BF1437BD4680BC704700020020C3
:1001A0005402002080B582B000AF7860134B1B680A
:1001B000134AD35C0A2B0FD1124B01221A700F4B3A
:1001C00000221A600D4B1B680D4A13440122194688
:1001D0000D4803F0F7F80DE0084B1B680133074AA0
:1001E0001360064B1B68064A134401221946064851
:1001F00003F0E8F800BF0837BD4680BD5805002071
:10020000580400205C08002050290020B0B5ADF54E
:100210001E7D02AF01F0BEFD00F066FB00F0CCFADF
:1002200000F062FB00F00CFB00F034FBC64A07F55F
:10023000147392E8030018600433198002330A0C27
:100240001A70C24B07F510740FCB07C42370C04A55
:1002500007F50D7307CA83E8070007F5C273B022DC
:100260000021184604F073FD07F1840318464FF48B
:1002700080731A46002104F06AFD07F14403184612
:1002800040231A46002104F062FD0023C7F86432BF
:100290000023C7F8583207F514731846FFF762FFBA
:1002A00003469AB207F51471C823AA4802F059FF11
:1002B00007F184014FF4C8734FF48072A54802F02F
:1002C000E2FF07F510731846FFF74CFF03469AB29A
:1002D00007F51071C8239F4802F043FF07F184011E
:1002E0004FF4C8734FF480729A4802F0CCFF07F5C0
:1002F0000D731846FFF736FF03469AB207F50D71E6
:10030000C823944802F02DFF07F184014FF4C8730D
:100310004FF480728F4802F0B6FF07F184034FF468
:1003200080720021184604F012FD0123C7F86032E4
:10033000AEE007F14403D7F860228749184604F07D
:100340000FFD07F144031846FFF70CFF03469AB26E
:1003500007F14401C8237F4802F003FF07F184013D
:100360004FF4C8734FF480727A4802F08CFF07F1A3
:1003700084037A491846FFF7EBFE0346002B00F092
:100380008D8007F184032221184604F035FDC7F85B
:100390006C02D7F86C320133C7F86C32D7F86C3284
:1003A000002B1ED02221D7F86C0204F025FDC7F8DF
:1003B000680216E0D7F860325A1ED7F86432591C2A
:1003C000C7F86412D7F86C120878654952010A44DC
:1003D0001344103302461A70D7F86C320133C7F851
:1003E0006C32D7F86C22D7F868329A42E2D1D7F84B
:1003F00068320133C7F868322221D7F8680204F066
:10040000FBFCC7F86C02D7F86C320133C7F86C32CA
:10041000D7F86C32002B06D02221D7F86C0204F0FA
:10042000EBFCC7F868020023C7F8643215E0D7F880
:1004300060325A1ED7F86432591CC7F86412D7F8D4
:100440006C120878464952010A44134402461A7055
:10045000D7F86C320133C7F86C32D7F86C22D7F872
:1004600068329A42E3D107F184034FF4807200218D
:10047000184604F06CFC0023C7F86432394B1B6843
:100480000133384A1360D7F860320133C7F860325D
:10049000D7F86032132B7FF74CAF00E000BF00238A
:1004A000C7F864320123C7F85C32E4E02E4B1B68C6
:1004B0005A1C07F144032D49184604F051FC07F17A
:1004C00044031846FFF74EFE03469AB207F1440173
:1004D000C823204802F045FE07F5C2714FF47A7335
:1004E000B0221C4802F0CFFE07F5C2731B49184624
:1004F000FFF72EFE0346002B00F0C3801C4B1A684A
:100500001346DB009B1A1B011A4A13447022002178
:10051000184604F01CFC07F5C2731749184604F08E
:1005200080FCC7F86C02D7F86C320133C7F86C3224
:10053000D7F86C32002B39D02221D7F86C0204F0A6
:100540005BFCC7F8680231E0C4600008CC600008BA
:10055000DC6000084C20002060600008706000082B
:10056000C81D002060080020640800207860000892
:100570006808002090200020886000087C4B1968E3
:10058000D7F86422531CC7F86432D7F86C321C7851
:1005900078480B46DB005B1A1B01034413442246D8
:1005A0001A70D7F86C320133C7F86C32D7F86C2266
:1005B000D7F868329A42E1D1D7F868320133C7F8E8
:1005C00068320A21D7F8680204F016FCC7F86C02FA
:1005D000D7F86C320133C7F86C32D7F86C32002B85
:1005E00006D00D21D7F86C0204F006FCC7F86802AB
:1005F0000023C7F8643218E05D4B1968D7F864220D
:10060000531CC7F86432D7F86C321C7859480B4633
:10061000DB005B1A1B0103441344103322461A709B
:10062000D7F86C320133C7F86C32D7F86C22D7F8A0
:1006300068329A42E0D107F5C273B0220021184611
:1006400004F085FB0023C7F864324B4B1B68013371
:10065000494A1360464B1B680133454A1360444BBB
:100660001B68142B02D1424B00221A60D7F85C326F
:100670000133C7F85C32D7F85C32FA2B7FF716AF3C
:1006800000E000BF3D4B01930323009300234FF490
:10069000C0723B493B4803F0F3FA0346012B00D0FC
:1006A00000BF394B01930323009300234FF4807262
:1006B0003649374803F0E4FA0346012B00D000BF67
:1006C000344B01930723009300234FF48072324987
:1006D000324803F0D5FA0346012B00D000BF304B5F
:1006E00001930723009300234FF480722D492E4875
:1006F00003F0C6FA0346012B00D000BF07F11C032C
:100700002A4A1C4615460FCD0FC40FCD0FC495E8DD
:1007100003002060043421803B1D254A1C461546F9
:100720000FCD0FC495E8030020600434218007F149
:100730001C031846FFF716FD03469AB207F11C0189
:10074000C8231C4802F00DFD3B1D1846FFF70AFDAB
:1007500003469AB2391DC823164802F002FD03F081
:10076000F1FB0023184607F51C77BD46B0BD00BF5E
:1007700068080020902000206408002090290020B4
:100780008C600008C11000088C2000209C600008CC
:100790000911000848200020A86000087512000810
:1007A000C41D0020B460000839100008E86000088B
:1007B000106100085029002080B590B000AF07F10B
:1007C000180328220021184604F0C1FA3B1D00221C
:1007D0001A605A609A60DA601A610123BB614FF4B3
:1007E0008033FB6100233B620123BB6202237B63F6
:1007F0004FF48033BB630023FB6307F118031846F3
:1008000001F0CCFD0346002B01D001F00DF90F23C0
:100810007B600223BB600023FB604FF480633B617D
:1008200000237B613B1D0021184602F037F8034688
:10083000002B01D001F0F8F800BF4037BD4680BD65
:1008400080B500AF114B124A1A60104B4FF4E132E1
:100850005A600E4B00229A600C4B0022DA600B4B60
:1008600000221A61094B0C225A61084B00229A613E
:10087000064B0022DA61054802F026FC0346002BF5
:1008800001D001F0D1F800BF80BD00BF4C20002096
:100890000038014080B500AF114B124A1A60104B6E
:1008A0004FF416525A600E4B00229A600C4B0022F5
:1008B000DA600B4B00221A61094B0C225A61084B7B
:1008C00000229A61064B0022DA61054802F0FCFB27
:1008D0000346002B01D001F0A7F800BF80BD00BF88
:1008E000502900200044004080B588B000AF07F1D7
:1008F000100300221A605A609A60DA601D4B9B69EF
:100900001C4A43F0200393611A4B9B6903F02003B8
:10091000FB60FB68174B9B69164A43F00403936125
:10092000144B9B6903F00403BB60BB68114B9B69CC
:10093000104A43F0080393610E4B9B6903F00803D0
:100940007B607B6801233B610B4B7B610023BB61B8
:1009500007F110031946094801F0A4FB0022002109
:10096000062001F0FEFA062001F017FB00BF203739
:10097000BD4680BD0010024000002110000C014067
:1009800080B5A8B000AF786007F160034022002175
:10099000184604F0DCF907F1200340220021184634
:1009A00004F0D5F9364A07F1140307CA83E80700B3
:1009B000344A07F1080307CA83E80700324B1B6873
:1009C0007A689A4215DA7B685B01304A1A4407F16B
:1009D00060032F49184604F0C3F97B685B011033AC
:1009E0002A4A1A4407F120032A49184604F0B8F9A4
:1009F0000DE007F16003284A2549184604F0B0F9D4
:100A000007F12003244A2349184604F0A9F907F105
:100A100060031846FFF7A6FB03469AB207F1600190
:100A2000C8231E4802F09DFB07F120031846FFF77C
:100A300099FB03469AB207F12001C823174802F038
:100A400090FB07F114031846FFF78CFB03469AB29C
:100A500007F114016423114802F083FB07F1080336
:100A60001846FFF77FFB03469AB207F1080164239B
:100A70000A4802F076FB00BFA037BD4680BD00BF2C
:100A8000706100087C61000860080020C81D00201B
:100A900028610008486100086861000850290020AA
:100AA00080B594B000AF78602549786804F0D4F937
:100AB000F8642349002004F0CFF9B864B86CFFF75C
:100AC00051FB0346013BBA6C134400221A7007F134
:100AD000080340220021184604F039F907F1080004
:100AE000FB6CBA6C174904F03BF9174B1B685B01B0
:100AF000164A1344F96C184604F08BF9124B1B6824
:100B00005B011033114A1344B96C184604F081F9A3
:100B100007F108031846FFF725FB03469AB207F1D1
:100B200008014FF4C8730A4802F01BFB064B1B6810
:100B30000133054A136000BF5037BD4680BD00BF7A
:100B4000886100088C61000860080020C81D002032
:100B50004C20002080B5BCB000AF7860424B1B68D1
:100B60005A1E7B68D31A7B607B68002B02DA7B6895
:100B700014337B6007F1B00340220021184604F0D3
:100B8000E6F83A4A07F1240307CA83E80700384A1F
:100B900007F1180307CA83E80700364A07F10C0378
:100BA00007CA83E807007A681346DB009B1A1B011B
:100BB000314A1A4407F1B0033049184604F0D0F81E
:100BC0007A681346DB009B1A1B0110332A4A1A4429
:100BD00007F130032A49184604F0C2F807F1B003C0
:100BE0001846FFF7BFFA03469AB207F1B001C823CF
:100BF000244802F0B6FA07F130031846FFF7B2FABC
:100C000003469AB207F130014FF4C8731D4802F051
:100C1000A8FA07F124031846FFF7A4FA03469AB28C
:100C200007F124016423174802F09BFA07F1180327
:100C30001846FFF797FA03469AB207F118016423A2
:100C4000104802F08EFA07F10C031846FFF78AFAF3
:100C500003469AB207F10C0164230A4802F081FAB4
:100C600000BFF037BD4680BD68080020D86100088D
:100C7000E46100087C61000890200020A861000861
:100C8000C06100085029002080B5A8B004AF794A9F
:100C900007F1780307CA03C31A800233120C1A70D3
:100CA00007F1380340220021184604F050F807F1FC
:100CB000180320220021184604F049F80023C7F841
:100CC000843007F178031846FFF74CFA03469AB2CE
:100CD00007F17801C823684802F043FA4FF4C8735B
:100CE0004FF480726549644802F0CDFA22216348CE
:100CF00004F082F8C7F88C00D7F88C300133C7F8BD
:100D00008C30D7F88C30002B19D02221D7F88C00EA
:100D100004F072F8C7F8880011E0D7F884305A1C44
:100D2000C7F88420D7F88C20127807F190010B4483
:100D300003F8582CD7F88C300133C7F88C30D7F82B
:100D40008C20D7F888309A42E7D1391D3A4607F10E
:100D5000380007F10C03039307F11003029307F126
:100D60001403019307F1080300930B46444904F070
:100D700017F83B6803F5FA633B60FA6807F118035C
:100D80004049184603F0ECFF07F118031846FFF737
:100D9000E9F903469AB207F11801C8233A4802F06C
:100DA000E0F93A6907F118033849184603F0D8FF0B
:100DB00007F118031846FFF7D5F903469AB207F171
:100DC0001801C823304802F0CCF97A6907F11803FA
:100DD0002F49184603F0C4FF07F118031846FFF720
:100DE000C1F903469AB207F11801C823264802F058
:100DF000B8F9BA6807F118032649184603F0B0FF9E
:100E000007F118031846FFF7ADF903469AB207F148
:100E10001801C8231C4802F0A4F97A6807F11803E6
:100E20001D49184603F09CFF07F118031846FFF709
:100E300099F903469AB207F11801C823124802F043
:100E400090F93A6807F118031449184603F088FF2F
:100E500007F118031846FFF785F903469AB207F120
:100E60001801C823084802F07CF900BF9037BD463E
:100E700080BD00BF946200084C2000205C07002069
:100E8000F061000804620008502900201C6200087C
:100E9000346200084C620008646200087C6200084A
:100EA00080B500AF5C4B5B78012B03D15A4B9B782C
:100EB000102B07D0584B5B78052B16D1564B9B78DF
:100EC000052B12D1554A544B104619464FF48073E6
:100ED0001A4603F031FF524B00221A70514B002288
:100EE0001A70514B01221A708EE04B4B5B78032B2A
:100EF00003D1494B9B78022B07D0474B5B78042BDF
:100F000007D1454B9B78022B03D1474B06221A7021
:100F10007AE0414B5B78042B07D13F4B9B78032B46
:100F200003D1414B07221A706EE03B4B5B78062BD6
:100F300007D1394B9B78032B03D13C48FFF7B0FD19
:100F400062E0354B5B78052B03D1334B9B78062B46
:100F50000FD0314B5B78052B03D12F4B9B78032BA4
:100F600007D02D4B5B78052B09D12B4B9B78072B9A
:100F700005D1294BDB791846FFF702FD44E0264BEB
:100F80005B78022B10D1244B9B78372B0CD1284A4D
:100F9000214B104619464FF480731A4603F0CCFEDD
:100FA000244B01221A702FE01B4B5B78092B03D1D5
:100FB000194B9B78022B17D0174B5B78092B03D169
:100FC000154B9B78032B0FD0134B5B78082B03D169
:100FD000114B9B78032B07D00F4B5B78002B09D16B
:100FE0000D4B9B78062B05D10B4BDB791846FFF791
:100FF000B1FD09E0084B5B78002B05D1064B9B78CF
:10100000122B01D1FFF740FE4FF4807200210248FD
:1010100003F09DFE00BF80BD580400205C06002048
:1010200000000020942900205D0800205F040020BB
:101030005C0500205E08002080B586B000AF7860B7
:101040001B4A07F10C0307CA03C31A80194B1B681C
:10105000002B28D0174B00221A6007F10C0318460A
:10106000FFF780F803469AB207F10C01C823124833
:1010700002F077F84FF4FA734FF480720F490E487C
:1010800002F001F90D4B9B7A332B02D100F058FB93
:1010900005E00A4B9B7A302B01D100F0C1FB062002
:1010A00000F07BFFD2E74FF4FA7002F017FFCDE7B4
:1010B000A0620008540400204C2000205C0700209F
:1010C00080B582B000AF78600B4B1B680B4A1344AD
:1010D000012219460A4802F075F90A4B1B78002BC9
:1010E00005D0084B00221A70FFF7DAFEF5E74FF43F
:1010F000FA7002F0F3FEF0E75805002058040020D3
:10110000502900205C08002080B5C0B000AF786096
:10111000504A07F1EC0307CA83E8070007F1AC0364
:1011200040220021184603F012FE07F10C03A02212
:101130000021184603F00BFE474B1B78012B04D00F
:10114000022B76D0002B7ED082E04FF480720021FB
:10115000424803F0FCFD4249424803F07DFEC7F8D7
:10116000FC003F49002003F077FEC7F8F80007F1C4
:10117000AC03D7F8FC203C49184603F0F1FD07F119
:101180000C03D7F8F810184603F043FE07F10C03E0
:101190001846FEF7E7FF0346013B07F5807213444C
:1011A0001A2203F8F42C07F1EC031846FEF7DAFFD5
:1011B00003469AB207F1EC014FF4C8732B4801F0D3
:1011C000D0FF4FF4C8734FF480722449274802F0CF
:1011D0005AF807F1AC031846FEF7C4FF03469AB26B
:1011E00007F1AC014FF4C873204801F0BAFF4FF487
:1011F000C8734FF4807219491C4802F044F807F193
:10120000AC031846FEF7AEFF03469AB207F10C0195
:101210004FF4C873154801F0A4FF4FF4C8734FF49E
:1012200080720E49114802F02EF80B4B02221A7000
:101230000EE04FF4807200210D4803F088FD064B4C
:1012400000221A7004E04FF4FA7002F047FE00BF6B
:1012500072E700BFDC6000085E0800205C07002029
:101260008861000863050020AC6200084C20002063
:101270005C050020B0B5D6B000AF3B1D186007F587
:101280008C7340220021184603F061FDB24A07F535
:10129000867307CA03C31A80B04A07F5827392E8BF
:1012A000030018600433198002330A0C1A70AC4B27
:1012B00007F1DC041D460FCD0FC40FCD0FC495E818
:1012C0000300206004342180A64B07F1B4041D46BE
:1012D0000FCD0FC40FCD0FC495E8030084E80300C1
:1012E000A14B07F198041D460FCD0FC495E80700E8
:1012F00003C422809D4B07F170041D460FCD0FC41F
:101300000FCD0FC495E8030020600434218002341F
:101310000B0C237007F14803954A1C4615460FCD68
:101320000FC40FCD0FC495E8030020600434218062
:1013300007F140038F4A92E80300186004331980D4
:1013400007F128038C4A1C4615460FCD0FC495E8BB
:10135000030020600434218007F10C03874A1C46F7
:1013600015460FCD0FC495E8070003C42280844BB7
:101370001B78072B00F2CC8101A252F823F000BFAA
:1013800007170008A113000811170008111700081B
:1013900085140008AD15000835160008171500085B
:1013A0004FF480720021774803F0D1FC7648FEF7B5
:1013B000D9FE0346013B744A0021D154734B1B787C
:1013C000002B33D107F58C73714A7249184603F02C
:1013D000C7FC07F58C731846FEF7C4FE03469AB2A5
:1013E00007F58C714FF4FA736B4801F0BAFE41F2C5
:1013F00088334FF480726349674801F044FF6749BE
:10140000604803F00EFD0346002B0BD05D4B9B782C
:101410004F2B03D05B4BDB784F2B03D1584B04226F
:101420001A7077E1564B06221A7073E1574B1B78FE
:10143000012B40F06F8107F58C73534A58491846C9
:1014400003F08EFC07F128031846FEF78BFE0346D7
:101450009AB207F128014FF49673524801F081FEC9
:1014600007F58C731846FEF77DFE03469AB207F522
:101470008C714FF496734B4801F073FE404B05227C
:101480001A7047E14FF4807200213E4803F05FFC80
:1014900007F586731846FEF765FE03469AB207F510
:1014A0008671C8233C4801F05CFE4FF4C8734FF4CA
:1014B00080723449384801F0E6FE3B49314803F078
:1014C000B0FC0346002B11D02D4B05221A7007F1FA
:1014D000B4031846FEF746FE03469AB207F1B4017C
:1014E0004FF496732F4801F03CFE15E12B49254837
:1014F00003F097FC0346002B00F00E81214B9B78F4
:101500004F2B04D01F4BDB784F2B40F005811C4B39
:1015100006221A7000E107F170031846FEF722FE5A
:1015200003469AB207F170014FF496731D4801F01B
:1015300018FE07F140031846FEF714FE03469AB260
:1015400007F140014FF49673134801F00AFE0C4B6B
:1015500005221A70E1E000BFF86200080463000889
:101560000C630008346300085C63000878630008BB
:10157000A0630008C8630008D0630008E86300089F
:101580005D0800205C0700205C06002094290020F4
:1015900064060020BC6200084C200020C8620008DD
:1015A000CC62000850290020EC6200084FF48072E1
:1015B00000215A4803F0CBFB07F586731846FEF767
:1015C000D1FD03469AB207F58671C823544801F04D
:1015D000C8FD4FF4C8734FF480725049504801F071
:1015E00052FE504B1B78012B11D14F494B4803F051
:1015F00018FC0346002B06D04B49484803F011FC69
:101600000346002B03D1494B06221A700DE0454BCF
:101610001B78002B09D14649404803F002FC0346E1
:10162000002B02D1414B06221A704FF4FA7002F0DF
:1016300055FC72E04FF480720021384803F087FBBC
:1016400007F582731846FEF78DFD03469AB207F53B
:101650008271C823324801F084FD4FF4C8734FF4FF
:1016600080722E492E4801F00EFE2E4B1B78002B67
:101670001CD107F1DC031846FEF774FD03469AB24D
:1016800007F1DC014FF496732A4801F06AFD07F177
:1016900098031846FEF766FD03469AB207F19801D3
:1016A0004FF49673234801F05CFD1FE01D4B1B783F
:1016B000012B1BD107F148031846FEF753FD0346E3
:1016C0009AB207F148014FF496731A4801F049FDA8
:1016D00007F10C031846FEF745FD03469AB207F1E1
:1016E0000C014FF49673134801F03BFD4FF48072E8
:1016F0000021114803F02BFB104B01221A700B4BF9
:1017000000221A7009E04FF4FA7002F0E7FB04E0DF
:1017100000BF2CE600BF2AE600BF28E65C070020D9
:101720004C20002094290020F46200085D0800206D
:10173000EC620008502900205C0600200000002018
:1017400080B586B000AF2E4A3B4607CA03C31A8055
:101750004FF4807200212B4803F0F9FA3B461846FB
:10176000FEF700FD03469AB23946C823264801F029
:10177000F8FC4FF496734FF480722249224801F02E
:1017800082FD22491F4803F04CFB0346002B32D058
:101790001F4B1B78012B2ED100237B61222119487E
:1017A00003F02AFB38613B6901333B613B69002B45
:1017B0000FD02221386903F01FFBF86009E07B6934
:1017C0005A1C7A613A691178124AD1543B69013343
:1017D0003B613A69FB689A42F1D10E4A7B69134436
:1017E0000A221A700A4B00221A700B4B01221A703F
:1017F0000A4B01221A7000BF1837BD4680BD00BFDA
:10180000F86200085C0700204C20002004640008F7
:10181000000000205C060020942900205D080020C4
:10182000B0B5ACB000AF07F1440360220021184608
:1018300003F08DFA07F1300300221A605A609A60B3
:10184000DA601A61664B3C461D460FCD0FC40FCDC2
:101850000FC495E80F0084E80F000023C7F8A430F8
:10186000604B1B685A1C07F130035F49184603F0B0
:1018700077FA07F130031846FEF774FC03469AB274
:1018800007F13001C823594801F06BFC07F144010E
:101890004FF47A736022554801F0F5FC07F14403D8
:1018A00053491846FEF754FC0346002B00F0948081
:1018B00007F144034F49184603F0B3FAC7F8AC00E8
:1018C000D7F8AC300133C7F8AC30D7F8AC30002BC8
:1018D0001FD02221D7F8AC0003F08EFAC7F8A80079
:1018E00017E0454B1968D7F8A420531CC7F8A4305B
:1018F000D7F8AC301C7841480B46DB005B1A1B0163
:101900000344134422461A70D7F8AC300133C7F8A9
:10191000AC30D7F8AC20D7F8A8309A42E1D1D7F84C
:10192000A8300133C7F8A8300A21D7F8A80003F07F
:1019300063FAC7F8AC00D7F8AC300133C7F8AC3065
:10194000D7F8AC30002B06D00D21D7F8AC0003F04F
:1019500053FAC7F8A8000023C7F8A43018E0264BB4
:101960001968D7F8A420531CC7F8A430D7F8AC30B6
:101970001C7822480B46DB005B1A1B01034413440E
:10198000103322461A70D7F8AC300133C7F8AC30A8
:10199000D7F8AC20D7F8A8309A42E0D1164B1B6894
:1019A0000133154A13600F4B1B6801330D4A136056
:1019B000114B1B68142B02D10F4B00221A603B46BF
:1019C0001846FEF7CFFB03469AB239464FF496739A
:1019D0000B4801F0C6FB00E000BFB037BD46B0BD0C
:1019E0000C64000864080020786000084C20002087
:1019F00070600008886000086808002090200020BF
:101A00005029002080B582B000AF78607B681B68E9
:101A1000044A934201D100F0D3F900BF0837BD4614
:101A200080BD00BF002C014080B400AF72B6FEE75D
:101A300080B584B000AF184B9B69174A43F001038F
:101A40009361154B9B6903F00103BB60BB68124BAC
:101A5000DB69114A43F08053D3610F4BDB6903F01C
:101A600080537B607B6800220F216FF0010000F043
:101A700078FA0A4B5B68FB60FB6823F0E063FB606D
:101A8000FB6843F00073FB60044AFB68536000BFCF
:101A90001037BD4680BD00BF00100240000001406D
:101AA00080B58AB000AF786007F1180300221A6091
:101AB0005A609A60DA607B681B683B4A934232D175
:101AC0003A4B9B69394A43F480439361374B9B6996
:101AD00003F480437B617B69344B9B69334A43F059
:101AE00004039361314B9B6903F004033B613B6941
:101AF0004FF40073BB610223FB6103237B6207F198
:101B0000180319462A4800F0CDFA4FF48063BB61F0
:101B10000023FB6100233B6207F1180319462448A8
:101B200000F0C0FA3CE07B681B68224A934237D140
:101B30001E4BDB691D4A43F40033D3611B4BDB6949
:101B400003F40033FB60FB68184B9B69174A43F0B2
:101B500004039361154B9B6903F00403BB60BB68EE
:101B60000423BB610223FB6103237B6207F118039B
:101B700019460F4800F096FA0823BB610023FB6169
:101B800000233B6207F118031946094800F08AFA5E
:101B900000220521262000F0E4F9262000F0FDF9BE
:101BA00000BF2837BD4680BD00380140001002400C
:101BB000000801400044004080B58CB000AF786060
:101BC0000023FB620023BB6200227968192000F029
:101BD000C8F9192000F0E1F91E4B9B691D4A43F436
:101BE000006393611B4B9B6903F40063FB60FB681C
:101BF00007F1100207F114031146184600F0CCFF5C
:101C000000F0B6FFF862FB6A134AA2FB03239B0CA9
:101C1000013BBB62114B124A1A60104B40F2E73293
:101C2000DA600E4ABB6A53600C4B00221A610B4B00
:101C300000229A60094800F0FDFF0346002B04D102
:101C4000064801F04FF8034600E0012318463037FC
:101C5000BD4680BD0010024083DE1B439829002052
:101C6000002C014080B400AFFEE780B400AFFEE777
:101C700080B400AFFEE780B400AFFEE780B400AFF1
:101C8000FEE780B400AF00BFBD4680BC70470000D7
:101C900080B500AF012000F05FFB024B01221A600B
:101CA00000BF80BD5404002080B500AF024801F0A1
:101CB0006BF800BF80BD00BF9829002080B500AF41
:101CC000024801F0D3FB00BF80BD00BF50290020B7
:101CD00080B586B000AF7860144A154BD31A7B618B
:101CE0007B693B61134B1B68002B02D1114B124ADD
:101CF0001A60104B1A687B6813443A699A4207D2FB
:101D000002F0F0FF02460C2313604FF0FF3309E0AE
:101D1000084B1B68FB60074B1A687B681344054A35
:101D20001360FB6818461837BD4680BD0050002080
:101D3000000400006C080020E829002080B400AFF7
:101D400000BFBD4680BC7047002103E00B4B5B58D1
:101D5000435004310A480B4B42189A42F6D30A4AC0
:101D600002E0002342F8043B084B9A42F9D3FFF704
:101D7000E5FF02F0BDFFFEF749FA70474066000834
:101D800000000020E4010020E4010020E8290020F8
:101D9000FEE7000080B500AF084B1B68074A43F020
:101DA00010031360032000F0D1F80020FFF704FFB8
:101DB000FFF73EFE0023184680BD00BF0020024012
:101DC00080B400AF054B1B781A46054B1B681344C3
:101DD000034A136000BFBD4680BC70470C00002062
:101DE000E029002080B400AF024B1B681846BD46B6
:101DF00080BC7047E029002080B485B000AF7860D7
:101E00007B6803F00703FB600C4BDB68BB60BA68C0
:101E10004FF6FF031340BB60FB681A02BB68134315
:101E200043F0BF6343F40033BB60044ABB68D36034
:101E300000BF1437BD4680BC704700BF00ED00E016
:101E400080B400AF044BDB681B0A03F0070318469D
:101E5000BD4680BC704700BF00ED00E080B483B099
:101E600000AF0346FB7197F90730002B0BDBFB79C2
:101E700003F01F02064997F907305B09012000FAB9
:101E800002F241F8232000BF0C37BD4680BC7047EA
:101E900000E100E080B483B000AF03463960FB711D
:101EA00097F90730002B0ADB3B68DAB20C4997F947
:101EB00007301201D2B20B4483F800230AE03B68DA
:101EC000DAB20849FB7903F00F03043B1201D2B2E6
:101ED0000B441A7600BF0C37BD4680BC704700BF6C
:101EE00000E100E000ED00E080B489B000AFF860F0
:101EF000B9607A60FB6803F00703FB61FB69C3F11B
:101F00000703042B28BF0423BB61FB690433062BA2
:101F100002D9FB69033B00E000237B614FF0FF32F5
:101F2000BB6902FA03F3DA43BB681A407B699A4043
:101F30004FF0FF317B6901FA03F3D9437B680B4013
:101F4000134318462437BD4680BC704780B582B025
:101F500000AF78607868FFF74FFF00BF0837BD46D5
:101F600080BD80B586B000AF0346B9607A60FB7370
:101F700000237B61FFF764FF78617A68B96878694C
:101F8000FFF7B2FF024697F90F3011461846FFF7E8
:101F900081FF00BF1837BD4680BD80B582B000AF5D
:101FA0000346FB7197F907301846FFF757FF00BF4C
:101FB0000837BD4680BD000080B584B000AF7860B2
:101FC0000023FB737B6893F82130022B05D07B68DC
:101FD00004229A630123FB7351E07B681B681A6833
:101FE0007B681B6822F00E021A607B681B681A6807
:101FF0007B681B6822F001021A607B681B68224A1A
:10200000934229D07B681B68204A934222D07B6888
:102010001B681F4A93421AD07B681B681D4A934273
:1020200012D07B681B681C4A93420AD07B681B68ED
:102030001A4A934202D14FF480130EE04FF080739E
:102040000BE04FF4803308E04FF4805305E04FF489
:10205000807302E0102300E00123114A53607B6883
:10206000012283F821207B68002283F820207B68EE
:102070005B6B002B03D07B685B6B78689847FB7BBE
:1020800018461037BD4680BD080002401C000240C3
:102090003000024044000240580002406C00024000
:1020A0000000024080B48BB000AF7860396000233C
:1020B0007B6200233B6227E101227B6A02FA03F381
:1020C000FB613B681B68FA691340BB61BA69FB6935
:1020D0009A4240F016813B685B68122B34D0122B79
:1020E0000DD8022B2BD0022B04D8002B31D0012B82
:1020F0001CD048E0032B43D0112B1BD043E0894A6E
:10210000934226D0874A934206D8874A934220D0EA
:10211000864A93421DD036E0854A934219D0854ABB
:10212000934216D0844A934213D02CE03B68DB687C
:102130003B6228E03B68DB6804333B6223E03B689A
:10214000DB6808333B621EE03B68DB680C333B62B4
:1021500019E03B689B68002B02D104233B6212E02C
:102160003B689B68012B05D108233B627B68FA69B9
:102170001A6108E008233B627B68FA695A6102E051
:1021800000233B6200BFBB69FF2B01D87B6801E0E5
:102190007B6804337B61BB69FF2B02D87B6A9B00A1
:1021A00002E07B6A083B9B003B617B691A680F2158
:1021B0003B6901FA03F3DB431A40396A3B6901FAD0
:1021C00003F31A437B691A603B685B6803F0805332
:1021D000002B00F09680594B9B69584A43F001034D
:1021E0009361564B9B6903F00103BB60BB68544A83
:1021F0007B6A9B08023352F82330FB607B6A03F052
:1022000003039B000F2202FA03F3DB43FA68134037
:10221000FB607B684B4A934213D07B684A4A9342E7
:102220000DD07B68494A934207D07B68484A934265
:1022300001D1032306E0042304E0022302E001238A
:1022400000E000237A6A02F0030292009340FA68E9
:102250001343FB603A497B6A9B080233FA6841F8F2
:1022600023203B685B6803F48033002B06D0394B96
:102270001A683849BB6913430B6006E0354B1A688E
:10228000BB69DB43334913400B603B685B6803F475
:102290000033002B06D02F4B5A682E49BB691343DD
:1022A0004B6006E02B4B5A68BB69DB43294913405E
:1022B0004B603B685B6803F48013002B06D0254B12
:1022C0009A682449BB6913438B6006E0214B9A68E6
:1022D000BB69DB431F4913408B603B685B6803F4B9
:1022E0000013002B06D01B4BDA681A49BB69134355
:1022F000CB6006E0174BDA68BB69DB431549134036
:10230000CB607B6A01337B623B681A687B6A22FA86
:1023100003F3002B7FF4D0AE00BF2C37BD4680BC4A
:10232000704700BF000021100000111000001210C3
:102330000000311000003210000022100010024096
:102340000000014000080140000C01400010014065
:10235000001401400004014080B582B000AF034684
:10236000FB80084B5A69FB881340002B06D0054AB6
:10237000FB885361FB88184600F006F800BF083759
:10238000BD4680BD0004014080B483B000AF034669
:10239000FB8000BF0C37BD4680BC704780B586B05F
:1023A00000AF78607B68002B01D101236CE27B6871
:1023B0001B6803F00103002B00F08780924B5B68E1
:1023C00003F00C03042B0CD08F4B5B6803F00C0361
:1023D000082B12D18C4B5B6803F48033B3F5803F3C
:1023E0000BD1894B1B6803F40033002B6CD07B6846
:1023F0005B68002B68D1012346E27B685B68B3F51C
:10240000803F06D1804B1B687F4A43F480331360C2
:102410002EE07B685B68002B0CD17B4B1B687A4AF3
:1024200023F480331360784B1B68774A23F48023AE
:1024300013601DE07B685B68B3F5A02F0CD1724B75
:102440001B68714A43F4802313606F4B1B686E4A0C
:1024500043F4803313600BE06B4B1B686A4A23F430
:1024600080331360684B1B68674A23F48023136032
:102470007B685B68002B13D0FFF7B4FC386108E081
:10248000FFF7B0FC02463B69D31A642B01D9032342
:10249000FAE15D4B1B6803F40033002BF0D014E02D
:1024A000FFF7A0FC386108E0FFF79CFC02463B699F
:1024B000D31A642B01D90323E6E1534B1B6803F4C1
:1024C0000033002BF0D100E000BF7B681B6803F0F5
:1024D0000203002B63D04C4B5B6803F00C03002B12
:1024E0000BD0494B5B6803F00C03082B1CD1464B07
:1024F0005B6803F48033002B16D1434B1B6803F059
:102500000203002B05D07B681B69012B01D001233E
:10251000BAE13D4B1B6823F0F8027B685B69DB0086
:10252000394913430B603AE07B681B69002B20D0CC
:10253000364B01221A60FFF755FC386108E0FFF7BF
:1025400051FC02463B69D31A022B01D903239BE1BC
:102550002D4B1B6803F00203002BF0D02A4B1B68A5
:1025600023F0F8027B685B69DB00274913430B60AB
:1025700015E0264B00221A60FFF734FC386108E0B2
:10258000FFF730FC02463B69D31A022B01D9032323
:102590007AE11D4B1B6803F00203002BF0D17B682E
:1025A0001B6803F00803002B3AD07B689B69002B63
:1025B00019D0174B01221A60FFF714FC386108E0AC
:1025C000FFF710FC02463B69D31A022B01D9032303
:1025D0005AE10D4B5B6A03F00203002BF0D001209F
:1025E00000F00AFB1CE00A4B00221A60FFF7FAFB1E
:1025F00038610FE0FFF7F6FB02463B69D31A022B66
:1026000008D9032340E100BF00100240000042420D
:10261000800442429E4B5B6A03F00203002BE9D127
:102620007B681B6803F00403002B00F0A6800023E6
:10263000FB75974BDB6903F08053002B0DD1944B56
:10264000DB69934A43F08053D361914BDB6903F01C
:102650008053BB60BB680123FB758E4B1B6803F482
:102660008073002B18D18B4B1B688A4A43F480730C
:102670001360FFF7B7FB386108E0FFF7B3FB0246D2
:102680003B69D31A642B01D90323FDE0814B1B68FE
:1026900003F48073002BF0D07B68DB68012B06D13C
:1026A0007B4B1B6A7A4A43F0010313622DE07B687F
:1026B000DB68002B0CD1764B1B6A754A23F00103B3
:1026C0001362734B1B6A724A23F0040313621CE00B
:1026D0007B68DB68052B0CD16D4B1B6A6C4A43F0A1
:1026E000040313626A4B1B6A694A43F001031362D5
:1026F0000BE0674B1B6A664A23F001031362644BCD
:102700001B6A634A23F0040313627B68DB68002BB7
:1027100015D0FFF767FB38610AE0FFF763FB02465D
:102720003B69D31A41F28832934201D90323ABE0CB
:10273000574B1B6A03F00203002BEED014E0FFF7A7
:1027400051FB38610AE0FFF74DFB02463B69D31AA3
:1027500041F28832934201D9032395E04C4B1B6A26
:1027600003F00203002BEED1FB7D012B05D1484B7A
:10277000DB69474A23F08053D3617B68DB69002B18
:1027800000F08180424B5B6803F00C03082B61D0A2
:102790007B68DB69022B46D13F4B00221A60FFF7B2
:1027A00021FB386108E0FFF71DFB02463B69D31AA5
:1027B000022B01D9032367E0354B1B6803F000733C
:1027C000002BF0D17B681B6AB3F5803F08D1304BFA
:1027D0005B6823F400327B689B682D4913434B6090
:1027E0002B4B5B6823F474127B68196A7B685B6A05
:1027F0000B43274913434B60274B01221A60FFF715
:10280000F1FA386108E0FFF7EDFA02463B69D31AA6
:10281000022B01D9032337E01D4B1B6803F0007323
:10282000002BF0D02FE01C4B00221A60FFF7DAFAE1
:10283000386108E0FFF7D6FA02463B69D31A022B4B
:1028400001D9032320E0124B1B6803F00073002B17
:10285000F0D118E07B68DB69012B01D1012313E083
:102860000B4B5B68FB60FB6803F480327B681B6A80
:102870009A4206D1FB6803F470127B685B6A9A4245
:1028800001D0012300E0002318461837BD4680BD63
:1028900000100240007000406000424280B584B0E9
:1028A00000AF786039607B68002B01D10123D0E054
:1028B0006A4B1B6803F007033A689A4210D9674BCA
:1028C0001B6823F0070265493B6813430B60634BA9
:1028D0001B6803F007033A689A4201D00123B8E06D
:1028E0007B681B6803F00203002B20D07B681B6809
:1028F00003F00403002B05D0594B5B68584A43F49E
:10290000E06353607B681B6803F00803002B05D06D
:10291000534B5B68524A43F460535360504B5B68BF
:1029200023F0F0027B689B684D4913434B607B6842
:102930001B6803F00103002B40D07B685B68012B10
:1029400007D1474B1B6803F40033002B15D101233B
:102950007FE07B685B68022B07D1414B1B6803F06B
:102960000073002B09D1012373E03D4B1B6803F07A
:102970000203002B01D101236BE0394B5B6823F08C
:1029800003027B685B68364913434B60FFF72AFA02
:10299000F8600AE0FFF726FA0246FB68D31A41F214
:1029A0008832934201D9032353E02D4B5B6803F037
:1029B0000C027B685B689B009A42EBD1274B1B683B
:1029C00003F007033A689A4210D2244B1B6823F0A5
:1029D000070222493B6813430B60204B1B6803F03E
:1029E00007033A689A4201D0012332E07B681B68F2
:1029F00003F00403002B08D0194B5B6823F4E0625A
:102A00007B68DB68164913434B607B681B6803F0E7
:102A10000803002B09D0124B5B6823F460527B68DB
:102A20001B69DB000E4913434B6000F021F801469F
:102A30000B4B5B681B0903F00F030A4AD35C21FAB6
:102A400003F3094A1360094B1B681846FFF7B4F8F3
:102A5000002318461037BD4680BD00BF002002404D
:102A600000100240646400080400002008000020F8
:102A700090B48AB000AF2A4B3C1D0FCB84E80F0006
:102A8000284B1B883B800023FB610023BB61002394
:102A90007B6200237B6100233B62234B5B68FB610D
:102AA000FB6903F00C03042B02D0082B03D02DE0AC
:102AB0001E4B3B622DE0FB699B0C03F00F0307F1FB
:102AC0002802134413F8243C7B61FB6903F4803330
:102AD000002B13D0144B5B685B0C03F0010307F170
:102AE0002802134413F8283CBB617B690F4A02FBA0
:102AF00003F2BB69B2FBF3F37B6204E07B690C4A2F
:102B000002FB03F37B627B6A3B6202E0074B3B62A2
:102B100000BF3B6A18462837BD4690BC704700BFCF
:102B20003C6400084C6400080010024000127A0067
:102B300000093D0080B400AF024B1B681846BD463B
:102B400080BC70470400002080B500AFFFF7F2FFA3
:102B50000146054B5B681B0A03F00703034AD35C7D
:102B600021FA03F3184680BD001002407464000887
:102B700080B500AFFFF7DEFF0146054B5B68DB0A5F
:102B800003F00703034AD35C21FA03F3184680BD20
:102B9000001002407464000880B483B000AF786015
:102BA00039607B680F221A60114B5B6803F00302E7
:102BB0007B685A600E4B5B6803F0F0027B689A609A
:102BC0000B4B5B6803F4E0627B68DA60084B5B6880
:102BD000DB0803F4E0627B681A61064B1B6803F0B4
:102BE00007023B681A6000BF0C37BD4680BC7047C7
:102BF000001002400020024080B485B000AF786031
:102C00000A4B1B680A4AA2FB03235B0A7A6802FB91
:102C100003F3FB6000BFFB685A1EFA60002BF9D17A
:102C200000BF1437BD4680BC704700BF04000020C1
:102C3000D34D621080B582B000AF78607B68002B06
:102C400001D1012341E07B6893F83D30DBB2002BDA
:102C500006D17B68002283F83C20786800F039F8C0
:102C60007B68022283F83D207B681A687B68043306
:102C70001946104600F0B4F97B68012283F846201B
:102C80007B68012283F83E207B68012283F83F2085
:102C90007B68012283F840207B68012283F8412071
:102CA0007B68012283F842207B68012283F843205D
:102CB0007B68012283F844207B68012283F8452049
:102CC0007B68012283F83D20002318460837BD4663
:102CD00080BD80B483B000AF786000BF0C37BD46C4
:102CE00080BC704780B485B000AF78607B6893F893
:102CF0003D30DBB2012B01D001233AE07B68022298
:102D000083F83D207B681B68DA687B681B6842F0AB
:102D10000102DA607B681B68184A93420ED07B6818
:102D20001B68B3F1804F09D07B681B68144A93423B
:102D300004D07B681B68134A934211D17B681B68DF
:102D40009B6803F00703FB60FB68062B10D07B68D1
:102D50001B681A687B681B6842F001021A6007E072
:102D60007B681B681A687B681B6842F001021A6066
:102D7000002318461437BD4680BC7047002C014024
:102D8000000400400008004080B582B000AF7860C9
:102D90007B681B681B6903F00203022B22D17B684E
:102DA0001B68DB6803F00203022B1BD17B681B68E6
:102DB0006FF002021A617B6801221A777B681B6838
:102DC0009B6903F00303002B03D0786800F0EDF853
:102DD00005E0786800F0E0F8786800F0EFF87B68CC
:102DE00000221A777B681B681B6903F00403042B1D
:102DF00022D17B681B68DB6803F00403042B1BD122
:102E00007B681B686FF004021A617B6802221A77E4
:102E10007B681B689B6903F44073002B03D07868C0
:102E200000F0C3F805E0786800F0B6F8786800F0C4
:102E3000C5F87B6800221A777B681B681B6903F062
:102E40000803082B22D17B681B68DB6803F00803AA
:102E5000082B1BD17B681B686FF008021A617B6826
:102E600004221A777B681B68DB6903F00303002BDD
:102E700003D0786800F099F805E0786800F08CF8E5
:102E8000786800F09BF87B6800221A777B681B68E3
:102E90001B6903F01003102B22D17B681B68DB68D1
:102EA00003F01003102B1BD17B681B686FF010021E
:102EB0001A617B6808221A777B681B68DB6903F458
:102EC0004073002B03D0786800F06FF805E0786855
:102ED00000F062F8786800F071F87B6800221A77D9
:102EE0007B681B681B6903F00103012B0ED17B6813
:102EF0001B68DB6803F00103012B07D17B681B68AB
:102F00006FF001021A617868FEF77CFD7B681B6830
:102F10001B6903F08003802B0ED17B681B68DB6884
:102F200003F08003802B07D17B681B686FF0800261
:102F30001A61786800F0BFF87B681B681B6903F0B2
:102F40004003402B0ED17B681B68DB6803F0400315
:102F5000402B07D17B681B686FF040021A617868CC
:102F600000F035F87B681B681B6903F02003202BF9
:102F70000ED17B681B68DB6803F02003202B07D190
:102F80007B681B686FF020021A61786800F08AF88D
:102F900000BF0837BD4680BD80B483B000AF786005
:102FA00000BF0C37BD4680BC704780B483B000AF13
:102FB000786000BF0C37BD4680BC704780B483B0DA
:102FC00000AF786000BF0C37BD4680BC704780B44E
:102FD00083B000AF786000BF0C37BD4680BC70473F
:102FE00080B485B000AF786039607B681B68FB6097
:102FF0007B68294A93420BD07B68B3F1804F07D09E
:103000007B68264A934203D07B68254A934208D1C5
:10301000FB6823F07003FB603B685B68FA6813434E
:10302000FB607B681C4A93420BD07B68B3F1804FF6
:1030300007D07B68194A934203D07B68184A9342B1
:1030400008D1FB6823F44073FB603B68DB68FA68D7
:103050001343FB60FB6823F080023B685B6913430A
:10306000FB607B68FA681A603B689A687B68DA6282
:103070003B681A687B689A627B68074A934203D16F
:103080003B681A697B681A637B6801225A6100BF3A
:103090001437BD4680BC7047002C0140000400403E
:1030A0000008004080B483B000AF786000BF0C37E8
:1030B000BD4680BC704780B483B000AF786000BF6D
:1030C0000C37BD4680BC704780B582B000AF7860D9
:1030D0007B68002B01D101233FE07B6893F83930F6
:1030E000DBB2002B06D17B68002283F83820786899
:1030F000FEF7D6FC7B68242283F839207B681B68A6
:10310000DA687B681B6822F40052DA60786800F0A5
:1031100021FC7B681B681A697B681B6822F490425B
:103120001A617B681B685A697B681B6822F02A0257
:103130005A617B681B68DA687B681B6842F400523E
:10314000DA607B680022DA637B68202283F839200A
:103150007B68202283F83A20002318460837BD46B2
:1031600080BD80B58AB002AFF860B9603B6013469D
:10317000FB8000237B61FB6893F83930DBB2202BA6
:103180007CD1BB68002B02D0FB88002B01D101232E
:1031900075E0FB6893F83830012B01D102236EE013
:1031A000FB68012283F83820FB680022DA63FB68A1
:1031B000212283F83920FEF715FE7861FB68FA8832
:1031C0009A84FB68FA88DA84FB689B68B3F5805FB1
:1031D00008D1FB681B69002B04D10023FB61BB688D
:1031E000BB6103E0BB68FB610023BB61FB6800229D
:1031F00083F838202AE03B6800937B690022802115
:10320000F86800F045FA0346002B01D0032336E0AE
:10321000FB69002B0BD1BB691B881A46FB681B6836
:10322000C2F308025A60BB690233BB6107E0FB6965
:103230001A78FB681B685A60FB690133FB61FB6805
:10324000DB8C9BB2013B9AB2FB68DA84FB68DB8CB7
:103250009BB2002BCFD13B6800937B6900224021B9
:10326000F86800F015FA0346002B01D0032306E0AE
:10327000FB68202283F83920002300E0022318464F
:103280002037BD4680BD80B58AB002AFF860B96016
:103290003B601346FB8000237B61FB6893F83A3068
:1032A000DBB2202B40F08980BB68002B02D0FB886A
:1032B000002B01D1012381E0FB6893F83830012B0A
:1032C00001D102237AE0FB68012283F83820FB68F1
:1032D0000022DA63FB68222283F83A20FEF782FD9F
:1032E0007861FB68FA889A85FB68FA88DA85FB685A
:1032F0009B68B3F5805F08D1FB681B69002B04D184
:103300000023FB61BB68BB6103E0BB68FB6100237A
:10331000BB61FB68002283F8382043E03B680093E0
:103320007B6900222021F86800F0B2F90346002BE7
:1033300001D0032342E0FB69002B0CD1FB681B6822
:103340005B689BB2C3F308039AB2BB691A80BB697E
:103350000233BB611FE0FB689B68B3F5805F07D059
:10336000FB689B68002B0AD1FB681B69002B06D108
:10337000FB681B685B68DAB2FB691A7008E0FB68DF
:103380001B685B68DBB203F07F03DAB2FB691A707B
:10339000FB690133FB61FB68DB8D9BB2013B9AB299
:1033A000FB68DA85FB68DB8D9BB2002BB6D1FB682E
:1033B000202283F83A20002300E002231846203719
:1033C000BD4680BD80B485B000AFF860B9601346DB
:1033D000FB80FB6893F83A30DBB2202B40D1BB680E
:1033E000002B02D0FB88002B01D1012339E0FB68C0
:1033F00093F83830012B01D1022332E0FB6801221F
:1034000083F83820FB68BA689A62FB68FA889A8564
:10341000FB68FA88DA85FB680022DA63FB682222FF
:1034200083F83A20FB68002283F83820FB681B6889
:10343000DA68FB681B6842F48072DA60FB681B681C
:103440005A69FB681B6842F001025A61FB681B68FD
:10345000DA68FB681B6842F02002DA60002300E0B3
:10346000022318461437BD4680BC704780B588B02B
:1034700000AF78607B681B681B68FB617B681B681A
:10348000DB68BB617B681B685B697B6100233B6118
:103490000023FB60FB6903F00F033B613B69002BDA
:1034A0000DD1FB6903F02003002B08D0BB6903F0AA
:1034B0002003002B03D0786800F0CCF9D1E03B6901
:1034C000002B00F0B0807B6903F00103002B05D1D5
:1034D000BB6903F49073002B00F0A580FB6903F037
:1034E0000103002B0AD0BB6903F48073002B05D0C5
:1034F0007B68DB6B43F001027B68DA63FB6903F0F6
:103500000403002B0AD07B6903F00103002B05D0D4
:103510007B68DB6B43F002027B68DA63FB6903F0D4
:103520000203002B0AD07B6903F00103002B05D0B6
:103530007B68DB6B43F004027B68DA63FB6903F0B2
:103540000803002B0FD0BB6903F02003002B04D12C
:103550007B6903F00103002B05D07B68DB6B43F034
:1035600008027B68DA637B68DB6B002B78D0FB6931
:1035700003F02003002B07D0BB6903F02003002BCE
:1035800002D0786800F066F97B681B685B6903F01D
:103590004003002B14BF01230023DBB2FB607B68D8
:1035A000DB6B03F00803002B02D1FB68002B31D04A
:1035B000786800F0B7F87B681B685B6903F040032C
:1035C000002B23D07B681B685A697B681B6822F03C
:1035D00040025A617B685B6B002B13D07B685B6B8E
:1035E000214A5A637B685B6B1846FEF7E5FC03468D
:1035F000002B16D07B685B6B5B6B7A68526B104656
:1036000098470EE0786800F03AF80AE0786800F031
:1036100036F806E0786800F032F87B680022DA635A
:103620001EE000BF1CE0FB6903F08003002B08D004
:10363000BB6903F08003002B03D0786800F0A3F887
:103640000FE0FB6903F04003002B0AD0BB6903F0D5
:103650004003002B05D0786800F0E4F800BF00E0DC
:1036600000BF2037BD4680BD5F37000880B483B0FF
:1036700000AF786000BF0C37BD4680BC704780B497
:1036800083B000AF786000BF0C37BD4680BC704788
:1036900080B584B000AFF860B9603B601346FB7141
:1036A0002CE0BB69B3F1FF3F28D0BB69002B07D0EA
:1036B000FEF798FB02463B68D31ABA699A421DD2BC
:1036C000FB681B68DA68FB681B6822F4D072DA605A
:1036D000FB681B685A69FB681B6822F001025A618B
:1036E000FB68202283F83920FB68202283F83A20E7
:1036F000FB68002283F8382003230FE0FB681B6877
:103700001A68BB681340BA689A420CBF01230023B1
:10371000DBB21A46FB799A42C3D000231846103711
:10372000BD4680BD80B483B000AF78607B681B6805
:10373000DA687B681B6822F49072DA607B681B6829
:103740005A697B681B6822F001025A617B6820225B
:1037500083F83A2000BF0C37BD4680BC704780B567
:1037600084B000AF78607B685B6AFB60FB68002216
:10377000DA85FB680022DA84F868FFF780FF00BF73
:103780001037BD4680BD80B485B000AF78607B68DF
:1037900093F83930DBB2212B3ED17B689B68B3F5BF
:1037A000805F14D17B681B69002B10D17B681B6A7A
:1037B000FB60FB681B881A467B681B68C2F3080223
:1037C0005A607B681B6A9A1C7B681A6208E07B68F7
:1037D0001B6A591C7A6811621A787B681B685A60E8
:1037E0007B68DB8C9BB2013B9BB27A681946D18423
:1037F000002B0FD17B681B68DA687B681B6822F09E
:103800008002DA607B681B68DA687B681B6842F0BC
:103810004002DA60002300E0022318461437BD4658
:1038200080BC704780B582B000AF78607B681B6851
:10383000DA687B681B6822F04002DA607B6820222D
:1038400083F839207868FFF711FF002318460837FE
:10385000BD4680BD80B584B000AF78607B6893F8CA
:103860003A30DBB2222B70D17B689B68B3F5805F66
:1038700017D17B681B69002B13D10023FB607B6889
:103880009B6ABB607B681B685B689BB2C3F30803E1
:103890009AB2BB681A807B689B6A9A1C7B689A62A2
:1038A00026E07B689B6AFB600023BB607B689B68AB
:1038B000B3F5805F07D07B689B68002B0AD17B68DB
:1038C0001B69002B06D17B681B685B68DAB2FB685A
:1038D0001A7008E07B681B685B68DBB203F07F034B
:1038E000DAB2FB681A707B689B6A5A1C7B689A6222
:1038F0007B68DB8D9BB2013B9BB27A681946D18510
:10390000002B20D17B681B68DA687B681B6822F07B
:103910002002DA607B681B68DA687B681B6822F427
:103920008072DA607B681B685A697B681B6822F0CA
:1039300001025A617B68202283F83A207868FCF7FC
:1039400031FC002302E0002300E002231846103778
:10395000BD4680BD80B584B000AF78607B681B68D1
:103960001B6923F440517B68DA687B681B680A4353
:103970001A617B689A687B681B691A437B685B697C
:103980001343BB607B681B68DB6823F4B05323F0F0
:103990000C037A681268B9680B43D3607B681B68B4
:1039A0005B6923F440717B689A697B681B680A43F2
:1039B0005A617B681B682C4A934203D1FFF7D8F801
:1039C000F86002E0FFF7C0F8F860FA6813469B0061
:1039D00013449A001A447B685B689B00B2FBF3F3C4
:1039E000224AA2FB03235B091901FA6813469B00D4
:1039F00013449A001A447B685B689B00B2FBF3F2A5
:103A00001A4BA3FB02035B09642000FB03F3D31AE8
:103A10001B013233154AA2FB03235B0903F0F003B9
:103A20001944FA6813469B0013449A001A447B68B1
:103A30005B689B00B2FBF3F20C4BA3FB02035B0938
:103A4000642000FB03F3D31A1B013233074AA2FBA5
:103A500003235B0903F00F027B681B680A449A602A
:103A600000BF1037BD4680BD003801401F85EB51B7
:103A700080B483B000AF78607B6803F108027B6894
:103A80005A607B684FF0FF329A607B6803F108024E
:103A90007B68DA607B6803F108027B681A617B68E7
:103AA00000221A6000BF0C37BD4680BC704780B44E
:103AB00083B000AF78607B6800221A6100BF0C37CA
:103AC000BD4680BC704780B485B000AF7860396077
:103AD0007B685B68FB603B68FA685A60FB689A68C1
:103AE0003B689A60FB689B683A685A60FB683A6872
:103AF0009A603B687A681A617B681B685A1C7B680D
:103B00001A6000BF1437BD4680BC704780B485B0D2
:103B100000AF786039603B681B68BB60BB68B3F17D
:103B2000FF3F03D17B681B69FB600CE07B680833B7
:103B3000FB6002E0FB685B68FB60FB685B681B681E
:103B4000BA689A42F6D2FB685A683B685A603B688A
:103B50005B683A689A603B68FA689A60FB683A6802
:103B60005A603B687A681A617B681B685A1C7B68DC
:103B70001A6000BF1437BD4680BC704780B485B062
:103B800000AF78607B681B69FB607B685B687A6864
:103B900092689A607B689B687A6852685A60FB6892
:103BA0005B687A689A4203D17B689A68FB685A60BE
:103BB0007B6800221A61FB681B685A1EFB681A604A
:103BC000FB681B6818461437BD4680BC704780B53B
:103BD0008EB004AFF860B9607A603B607B6B002BFD
:103BE00009D14FF0500383F31188BFF36F8FBFF3F8
:103BF0004F8F3B62FEE7BB6B002B09D14FF05003A8
:103C000083F31188BFF36F8FBFF34F8FFB61FEE724
:103C100054233B613B69542B09D04FF0500383F38D
:103C20001188BFF36F8FBFF34F8FBB61FEE7BB6B94
:103C3000002B1ED07B6B002B1BD0BB6B7B627B6A87
:103C40007A6B1A637B6A022283F851200023039364
:103C50007B6A029307F1140301933B6B00933B686B
:103C60007A68B968F86800F050F8786A00F0CCF823
:103C700001E000237B617B6918462837BD4680BD83
:103C800080B58CB004AFF860B9603B601346FB8030
:103C9000FB889B00184600F051FE78617B69002B81
:103CA0000ED0542000F04AFEF861FB69002B03D0CF
:103CB000FB697A691A6305E0786900F001FF01E0A9
:103CC0000023FB61FB69002B17D0FB69002283F8FE
:103CD0005120FA8800230393FB690293FB6A019346
:103CE000BB6A00933B68B968F86800F00EF8F869A1
:103CF00000F08AF80123BB6102E04FF0FF33BB61A3
:103D0000BB6918462037BD4680BD80B588B000AF7E
:103D1000F860B9607A603B603B6B1A6B7B6803F1BB
:103D20008043013B9B001344BB61BB6923F0070345
:103D3000BB61BB6903F00703002B09D04FF05003B0
:103D400083F31188BFF36F8FBFF34F8F7B61FEE763
:103D50000023FB6112E0BA68FB69134419783A6BDF
:103D6000FB69134434330A461A70BA68FB6913447A
:103D70001B78002B06D0FB690133FB61FB690F2B1D
:103D8000E9D900E000BF3B6B002283F84320BB6A07
:103D9000062B01D90623BB623B6BBA6ADA623B6B26
:103DA000BA6A5A643B6B00229A643B6B0433184630
:103DB000FFF77DFE3B6B18331846FFF778FE3B6B31
:103DC0003A6B1A61BB6AC3F107023B6B9A613B6BAA
:103DD0003A6B5A623B6B0022DA643B6B002283F839
:103DE00050203A68F968B86900F006FC02463B6B5F
:103DF0001A60FB6A002B02D0FB6A3A6B1A6000BFA4
:103E00002037BD4680BD000080B582B000AF78602D
:103E100000F0DAFC2A4B1B680133294A1360294B56
:103E20001B68002B09D1274A7B681360244B1B6851
:103E3000012B10D100F0BCFA0DE0234B1B68002BC6
:103E400009D1204B1B68DA6A7B68DB6A9A4202D888
:103E50001C4A7B6813601D4B1B6801331B4A1360AF
:103E60007B68DB6A01229A40194B1B681343184A8E
:103E700013607B68DA6A13469B0013449B00154A63
:103E80001A447B68043319461046FFF71CFE00F005
:103E9000C9FC0D4B1B68002B0ED00A4B1B68DA6A5D
:103EA0007B68DB6A9A4207D20B4B4FF080521A6054
:103EB000BFF34F8FBFF36F8F00BF0837BD4680BD84
:103EC00070090020700800207C0900208C09002067
:103ED000780900207408002004ED00E080B584B06B
:103EE00000AF78600023FB607B68002B16D0134B7B
:103EF0001B68002B09D04FF0500383F31188BFF3E8
:103F00006F8FBFF34F8FBB60FEE700F079F80021A1
:103F1000786800F00BFB00F081F8F860FB68002B7C
:103F200007D1074B4FF080521A60BFF34F8FBFF39A
:103F30006F8F00BF1037BD4680BD00BF98090020BD
:103F400004ED00E080B58AB004AF0023BB6000231D
:103F50007B603A46391D07F108031846FCF70AF959
:103F600039687B68BA6802920193002300930023AA
:103F70000A461D491D48FFF72AFE02461C4B1A60DF
:103F80001B4B1B68002B02D001237B6101E0002347
:103F90007B617B69012B15D14FF0500383F31188AE
:103FA000BFF36F8FBFF34F8F3B61124B4FF0FF3268
:103FB0001A60114B01221A60104B00221A6000F0A7
:103FC00093FB0DE07B69B3F1FF3F09D14FF0500344
:103FD00083F31188BFF36F8FBFF34F8FFB60FEE752
:103FE00000BF1837BD4680BD5064000881430008FB
:103FF00094090020900900207C0900207409002009
:1040000080B400AF044B1B680133034A136000BF48
:10401000BD4680BC704700BF9809002080B584B0C1
:1040200000AF0023FB600023BB60414B1B68002BEB
:1040300009D14FF0500383F31188BFF36F8FBFF3A3
:104040004F8F3B60FEE700F0BFFB394B1B68013B25
:10405000374A1360364B1B68002B61D1354B1B6808
:10406000002B5DD02EE0344BDB68DB68FB60FB6827
:1040700018331846FFF782FDFB6804331846FFF734
:104080007DFDFB68DB6A01229A402C4B1B681343C1
:104090002A4A1360FB68DA6A13469B0013449B00AC
:1040A000274A1A44FB68043319461046FFF70BFDF4
:1040B000FB68DA6A234B1B68DB6A9A4202D3224B05
:1040C00001221A601C4B1B68002BCCD1FB68002B13
:1040D00001D000F007FA1D4B1B687B607B68002B4A
:1040E00010D000F037F80346002B02D0164B012207
:1040F0001A607B68013B7B607B68002BF1D1134B1E
:1041000000221A60104B1B68002B09D00123BB60F2
:104110000F4B4FF080521A60BFF34F8FBFF36F8F7A
:1041200000F080FBBB6818461037BD4680BD00BF5D
:10413000980900207009002030090020780900202B
:1041400074080020700800208409002080090020E5
:1041500004ED00E080B586B000AF00237B61504BDA
:104160001B68002B40F08C804E4B1B6801333B6179
:104170004C4A3B6913603B69002B1FD14A4B1B68BB
:104180001B68002B09D04FF0500383F31188BFF355
:104190006F8FBFF34F8F3B60FEE7434B1B68FB60A5
:1041A000424B1B68404A1360404AFB681360404B17
:1041B0001B6801333E4A136000F094F93D4B1B68C5
:1041C0003A699A424DD3384B1B681B68002B01D1CA
:1041D000012300E00023002B04D0364B4FF0FF32C8
:1041E0001A603EE0304B1B68DB68DB68BB60BB6875
:1041F0005B687B603A697B689A4203D22D4A7B6890
:1042000013602EE0BB6804331846FFF7B7FCBB68A9
:104210009B6A002B04D0BB6818331846FFF7AEFC2E
:10422000BB68DB6A01229A40234B1B681343224A76
:104230001360BB68DA6A13469B0013449B001F4A55
:104240001A44BB68043319461046FFF73CFCBB68B0
:10425000DA6A1B4B1B68DB6A9A42B4D301237B6189
:10426000B1E7174B1B68DA6A144913469B001344E5
:104270009B000B441B68012B07D901237B6104E0E1
:10428000104B1B6801330F4A13600F4B1B68002B48
:1042900001D001237B617B6918461837BD4680BD7C
:1042A0009809002074090020280900202C0900200A
:1042B0008809002090090020780900207408002057
:1042C00070080020800900208409002080B487B095
:1042D00000AF264B1B68002B03D0254B01221A6030
:1042E0003EE0234B00221A60224B1B68FB60FB68F8
:1042F000B3FA83F3FB72FB7AC3F11F037B611E49A0
:104300007A6913469B0013449B000B441B68002BE7
:1043100009D14FF0500383F31188BFF36F8FBFF3C0
:104320004F8F7B60FEE77A6913469B0013449B0026
:10433000114A13443B613B695B685A683B695A60A8
:104340003B695A683B6908339A4204D13B695B6810
:104350005A683B695A603B695B68DB68074A1360CF
:1043600000BF1C37BD4680BC704700BF98090020C5
:1043700084090020780900207408002070080020BB
:1043800080B582B000AF786000F052F8064B1B6831
:10439000012BF9D9054B4FF080521A60BFF34F8FB4
:1043A000BFF36F8FF0E700BF7408002004ED00E05A
:1043B00080B582B000AF00237B600CE07A681346C2
:1043C0009B0013449B00124A13441846FFF750FB0E
:1043D0007B6801337B607B68062BEFD90D48FFF7C4
:1043E00047FB0D48FFF744FB0C48FFF741FB0C4827
:1043F000FFF73EFB0B48FFF73BFB0B4B054A1A60F0
:104400000A4B054A1A6000BF0837BD4680BD00BF91
:104410007408002000090020140900203009002041
:10442000440900205C090020280900202C090020F4
:1044300080B582B000AF19E000F0C6F90F4BDB6821
:10444000DB687B607B6804331846FFF797FB0C4BF7
:104450001B68013B0A4A13600A4B1B68013B094A6F
:10446000136000F0DFF9786800F00EF8054B1B6868
:10447000002BE1D100BF0837BD4680BD44090020B4
:10448000700900205809002080B584B000AF786022
:104490007B6893F85130002B08D17B681B6B184662
:1044A00000F00EFB786800F00BFB17E07B6893F8D8
:1044B0005130012B03D1786800F002FB0EE07B68DD
:1044C00093F85130022B09D04FF0500383F3118839
:1044D000BFF36F8FBFF34F8FFB60FEE700BF103756
:1044E000BD4680BD80B483B000AF0E4B1B681B6817
:1044F000002B01D1012300E00023002B04D00A4B44
:104500004FF0FF321A6008E0064B1B68DB68DB687F
:104510007B607B685B68044A136000BF0C37BD4654
:1045200080BC7047280900209009002080B584B025
:1045300000AF78603960294B1B68FB60284B1B6813
:1045400004331846FFF71AFB0346002B0BD1244B0C
:104550001B68DB6A012202FA03F3DA43214B1B6872
:104560001340204A13607B68B3F1FF3F0AD13B68D8
:10457000002B07D01A4B1B68043319461A48FFF763
:10458000A2FA26E0FA687B681344BB60144B1B68F0
:10459000BA685A60BA68FB689A4209D2134B1A6823
:1045A0000F4B1B68043319461046FFF7AFFA10E0B3
:1045B0000F4B1A680A4B1B68043319461046FFF765
:1045C000A5FA0C4B1B68BA689A4202D2094ABB682A
:1045D000136000BF1037BD4680BD00BF74090020C6
:1045E00070080020780900205C0900202C090020B8
:1045F000280900209009002080B485B000AFF86041
:10460000B9607A60FB68043BFB60FB684FF0807226
:104610001A60FB68043BFB60BB6823F00102FB6887
:104620001A60FB68043BFB60084AFB681A60FB6881
:10463000143BFB607A68FB681A60FB68203BFB60F8
:10464000FB6818461437BD4680BC704751460008C9
:1046500080B485B000AF00237B60104B1B68B3F1C2
:10466000FF3F09D04FF0500383F31188BFF36F8FE2
:10467000BFF34F8FFB60FEE74FF0500383F31188C9
:10468000BFF36F8FBFF34F8FBB6000BF7B68002B02
:10469000FCD000BF1437BD4680BC7047100000201E
:1046A000074B19680868B0E8F00F80F30988BFF37A
:1046B0006F8F4FF0000080F311884EF00D0E7047A1
:1046C0007008002000BF00BF06480068006880F343
:1046D000088862B661B6BFF34F8FBFF36F8F00DFFC
:1046E00000BF00BF08ED00E080B584B000AF314BE3
:1046F000FB60FB681B78DBB27B60FB68FF221A70F3
:10470000FB681B78DBB2FB70FB78DBB203F0500375
:10471000DAB2294B1A70294B07221A6009E0274B9D
:104720001B68013B254A1360FB78DBB25B00DBB200
:10473000FB70FB78DBB203F08003802BEFD01F4BC4
:104740001B68C3F10703042B09D04FF0500383F318
:104750001188BFF36F8FBFF34F8FBB60FEE7174B1E
:104760001B681B02154A1360144B1B6803F4E063BB
:10477000124A13607B68DAB2FB681A70104B1B6830
:104780000F4A43F4700313600D4B1B680C4A43F04F
:104790007043136000F0B0F80A4B00221A60FFF774
:1047A00093FFFFF793FDFFF753FF002318461037E1
:1047B000BD4680BD00E400E09C090020A009002067
:1047C00020ED00E01000002080B483B000AF4FF077
:1047D000500383F31188BFF36F8FBFF34F8F7B605C
:1047E0000E4B1B6801330D4A13600C4B1B68012BE9
:1047F0000ED10B4B1B68DBB2002B09D04FF05003DE
:1048000083F31188BFF36F8FBFF34F8F3B60FEE7D9
:1048100000BF0C37BD4680BC704700BF10000020B1
:1048200004ED00E080B483B000AF104B1B68002B98
:1048300009D14FF0500383F31188BFF36F8FBFF39B
:104840004F8F7B60FEE7094B1B68013B074A1360F3
:10485000064B1B68002B04D100233B603B6883F3AD
:10486000118800BF0C37BD4680BC70471000002087
:10487000EFF30980BFF36F8F0D4B1A6820E9F00F3B
:1048800010602DE908404FF0500080F31188FFF7C9
:104890001DFD4FF0000080F31188BDE80840196845
:1048A0000868B0E8F00F80F30988BFF36F8F704796
:1048B0007008002000BF00BF80B582B000AF4FF08D
:1048C000500383F31188BFF36F8FBFF34F8F7B606B
:1048D000FFF740FC0346002B03D0064B4FF08052FD
:1048E0001A6000233B603B6883F3118800BF0837E0
:1048F000BD4680BD04ED00E080B400AF0A4B00224D
:104900001A600A4B00221A60094B1B68094AA2FB75
:1049100003239B09084A013B1360034B07221A60DB
:1049200000BFBD4680BC704710E000E018E000E02A
:1049300004000020D34D621014E000E080B58AB07E
:1049400000AF78600023FB61FFF75AFB574B1B68F1
:10495000002B01D100F00CF9554B1A687B6813400D
:10496000002B40F08C807B68002B1CD008227B68D9
:1049700013447B607B6803F00703002B13D07B6834
:1049800023F0070308337B607B6803F00703002BE9
:1049900009D04FF0500383F31188BFF36F8FBFF33B
:1049A0004F8F7B61FEE77B68002B68D0414B1B6813
:1049B0007A689A4263D8404B3B623F4B1B687B62EC
:1049C00004E07B6A3B627B6A1B687B627B6A5B6894
:1049D0007A689A4203D97B6A1B68002BF1D1334B6A
:1049E0001B687A6A9A424AD03B6A1B6808221344C1
:1049F000FB617B6A1A683B6A1A607B6A5A687B684B
:104A0000D21A08235B009A421ED97A6A7B68134443
:104A1000BB61BB6903F00703002B09D04FF05003C3
:104A200083F31188BFF36F8FBFF34F8F3B61FEE7B6
:104A30007B6A5A687B68D21ABB695A607B6A7A685B
:104A40005A60B86900F0F6F81A4B1A687B6A5B681E
:104A5000D31A184A1360174B1A68184B1B689A42EE
:104A600003D2144B1B68154A13607B6A5A68104BBB
:104A70001B681A437B6A5A607B6A00221A60FFF740
:104A8000CDFAFB6903F00703002B09D04FF0500368
:104A900083F31188BFF36F8FBFF34F8FFB60FEE787
:104AA000FB6918462837BD4680BD00BFAC1D0020FD
:104AB000B81D0020B01D0020A41D0020B41D002042
:104AC00080B586B000AF78607B687B617B68002B27
:104AD00046D008235B427A6913447B617B693B6162
:104AE0003B695A68204B1B681340002B09D14FF0DB
:104AF000500383F31188BFF36F8FBFF34F8FFB60B9
:104B0000FEE73B691B68002B09D04FF0500383F38D
:104B10001188BFF36F8FBFF34F8FBB60FEE73B6918
:104B20005A68114B1B681340002B19D03B691B6856
:104B3000002B15D13B695A680B4B1B68DB431A40AD
:104B40003B695A60FFF75CFA3B695A68074B1B6880
:104B50001344064A1360386900F06CF8FFF75EFAF8
:104B600000BF1837BD4680BDB81D0020B01D002015
:104B700080B485B000AF4FF4A053BB60274BFB60FF
:104B8000FB6803F00703002B0CD0FB680733FB60C6
:104B9000FB6823F00703FB60BA68FB68D31A1F4A5F
:104BA0001344BB60FB687B601D4A7B6813601C4B31
:104BB00000225A607B68BA681344FB600822FB68D5
:104BC0009B1AFB60FB6823F00703FB60FB68154A38
:104BD0001360144B1B6800225A60124B1B680022A2
:104BE0001A607B683B603B68FA68D21A3B685A607F
:104BF0000C4B1A683B681A603B685B680A4A136092
:104C00003B685B68094A1360094B4FF000421A6029
:104C100000BF1437BD4680BC704700BFA409002008
:104C2000A41D0020AC1D0020B41D0020B01D0020DC
:104C3000B81D002080B485B000AF7860274BFB60C2
:104C400002E0FB681B68FB60FB681B687A689A429D
:104C5000F7D8FB68BB60FB685B68BA6813447A6886
:104C60009A4208D1FB685A687B685B681A44FB6803
:104C70005A60FB687B607B68BB607B685B68BA6876
:104C80001A44FB681B689A4218D1FB681A68144BD7
:104C90001B689A420DD07B685A68FB681B685B688A
:104CA0001A447B685A60FB681B681A687B681A6044
:104CB00008E00B4B1A687B681A6003E0FB681A680F
:104CC0007B681A60FA687B689A4202D0FB687A684F
:104CD0001A6000BF1437BD4680BC7047A41D002079
:104CE000AC1D0020014B1868704700BF1400002065
:104CF00070B500250C4E0D4CA41BA410A54209D183
:104D000001F0A2F900250A4E0A4CA41BA410A542EA
:104D100005D170BD56F8253098470135EEE756F8B5
:104D2000253098470135F2E73866000838660008F4
:104D3000386600083C66000810B5431E0A449142DC
:104D400000D110BD11F8014B03F8014FF7E70346FE
:104D50000244934200D1704703F8011BF9E70000B9
:104D60000EB46FF0004100B59CB01DAB02900690F0
:104D7000079104910848094953F8042B05910068EC
:104D800002A9019300F0C4F90022029B1A701CB022
:104D90005DF804EB03B07047140000200802FFFF29
:104DA0000EB44FF4017230B59CB01FAC54F8045BE4
:104DB000ADF8142002900690FBF7D4F90B4B03904A
:104DC0000B9300230F9314934FF6FF73079008483B
:104DD000ADF816302A46234602A90068019400F077
:104DE000E9FA1CB0BDE8304003B07047F54D00084B
:104DF0001400002000207047C9B2034610F8012BB0
:104E00001AB18A42F9D118467047002918BF002309
:104E1000F9E7034611F8012B03F8012B002AF9D119
:104E20007047F0B503787BB1044623782046661CB2
:104E30007BB14A1E631E12F8015F4DB113F8017F6A
:104E40003446AF42F7D0F0E70B78002B18BF0020B4
:104E5000F0BD1846FCE70000134B2DE9F0411D683A
:104E60000646AC6D0F46B4B9502000F049F8A8656D
:104E7000C0E90044C0E90244C0E90444C0E90A446E
:104E8000C0E90C44C0E90E44C0E91044C0E9124432
:104E9000846104774462AA6D39463046BDE8F0412A
:104EA000012300F003B800BF14000020F0B518B9CA
:104EB000106808B9F0BD204604460F4614F8015B9F
:104EC00017F8016B1EB96DB915602846F2E7B542B7
:104ED000F6D1002BEFD114600370EBE72B460DE009
:104EE00026B91C4623460F4613F8015B17F8016BE1
:104EF000B542F5D1002DF1D0002121701360D9E722
:104F0000024B0146186800F04FB800BF14000020A3
:104F100038B50546002943D051F8043C0C1F002B3E
:104F2000B8BFE41801F053F81E4A1368104633B9AD
:104F3000636014602846BDE8384001F049B8A342D8
:104F40000BD921686218934201BF1A685B68521836
:104F5000226063600460EDE713465A680AB1A2421A
:104F6000FAD919685818A0420BD120680144581882
:104F700082421960DED110685268014419605A609B
:104F8000D8E702D90C232B60D4E7206821188A4285
:104F900001BF116852680918216062605C60C9E74E
:104FA00038BD00BFBC1D002070B5CD1C25F0030529
:104FB00008350C2D38BF0C25002D064601DBA94213
:104FC00003D90C233360002070BD01F000F8214AA2
:104FD0001468214691B9204C23681BB9304600F073
:104FE00019FE20602946304600F014FE431C24D1EF
:104FF0000C233046336000F0EBFFE4E70B685B1BEB
:1050000018D40B2B0FD90B60CC18CD50304600F0C4
:10501000DFFF04F10B00231D20F00700C31AD3D0DB
:105020005A42E250D0E74B688C4216BF636013606F
:105030000C46EBE70C464968CCE7C41C24F003049B
:10504000A04205D0211A304600F0E4FD0130CFD057
:105050002560DBE7BC1D0020C01D00202DE9F047C6
:105060008E6882469E420C469046994637D88A8979
:1050700012F4906F31D00223256809696F1A6569AF
:1050800005EB450595FBF3F509F101033B449D4212
:1050900038BF1D46530530D52946FFF785FF064624
:1050A00050B90C234FF0FF30CAF80030A38943F009
:1050B0004003A381BDE8F0873A462169FFF73CFE33
:1050C000A38923F4906343F08003A38126613E44C7
:1050D00026604E466561ED1BA5604E4500D94E46E3
:1050E00032464146206800F059FFA36800209B1B10
:1050F000A36023681E442660DCE72A4600F069FFAF
:1051000006460028E2D121695046FFF701FFC8E7B3
:105110002DE9F04F1D468B899DB01F0680460C4639
:1051200016460FD50B696BB94021FFF73DFF206094
:10513000206128B90C23C8F800304FF0FF30C8E0D8
:10514000402363610023099320238DF82930302305
:105150004FF0010B8DF82A30039537463D4615F880
:10516000013B0BB1252B3ED1B7EB060A0BD05346C2
:10517000324621464046FFF771FF013000F0A4801F
:10518000099B534409933B78002B00F09D8000233A
:105190004FF0FF32CDE90523049307938DF8533088
:1051A0001A932F46052217F8011B504800F0E8FE1D
:1051B000049BD0B9D90644BF20228DF853201A078A
:1051C00044BF2B228DF853202A782A2A15D02F4647
:1051D00000200A25079A394611F8013B303B092B7C
:1051E0004DD9B8B10FE02F46B8E7404A3D46801A86
:1051F0000BFA00F018430490D3E7039A111D1268CC
:105200000391002A01DB079204E0524243F00203BB
:10521000079204933B782E2B0CD17B782A2B33D129
:10522000039B02371A1D1B680392002BB8BF4FF077
:10523000FF3305932E4D03223978284600F0A0FE57
:1052400038B14023401B03FA00F0049B01370343AD
:1052500004933978062227487E1C8DF8281000F028
:105260008FFE002838D0244B13BB039B073323F059
:10527000070308330393099B4B4409936DE705FB30
:10528000023201200F46A6E700230A2519460137FE
:105290000593384610F8012B303A092A03D9002B20
:1052A000C8D00591C6E705FB012101230746F0E7B9
:1052B00003AB00932246114B04A94046AFF3008094
:1052C000B0F1FF3F8146D6D1A3895B063FF535AFEC
:1052D00009981DB0BDE8F08F03AB00932246074B41
:1052E00004A9404600F02CFAEAE700BF7C640008FD
:1052F0008264000886640008000000005D50000819
:1053000038B54B1C144603D14FF0FF35284638BD45
:105310009389CDB223F020039381636B52688BB1E4
:10532000A36B934208DD23685A1E226003F8015CD8
:10533000636801336360E9E7214600F0C5FD00289A
:10534000F1D0E1E72169236851B1994208D213F8FD
:10535000011CA94204D1013B013223606260D5E700
:10536000C4E90F3204F1440363630323A3632346B8
:1053700003F8465F23600123DCE710B50C46496B58
:1053800069B104F14403994201D0FFF7C1FD002047
:10539000236C6063636013B1E36B236010BD23690A
:1053A0004FF0FF30236000236360A38943F02003A4
:1053B000A381F3E72DE9F04F0C4600210646924603
:1053C0000A27ADF5237D449145919E490DF10408CE
:1053D000A0919D49DFF87492CDF81881A1910093B6
:1053E0009AF80030002B00F02A81554600F0A8FD05
:1053F00015F801BB5844437813F008031CD06368C8
:10540000002B12DD00F09CFD23681A7810444278CE
:10541000120701D4AA46E3E7459A013301324592C7
:1054200062682360013A6260E9E7A19B2146304649
:1054300098470028E6D0EDE7BBF1250F40F08280C9
:10544000439341939AF801302A2B03D110230AF198
:1054500002054193AA4615F8011BA1F13002092A61
:1054600022D90322794800F08BFD38B1A0EB090363
:105470000120AA469840419B184341909AF8003079
:105480000AF10105672B2BD8652B80F09F80472BF5
:1054900010D8452B80F09A80002B6CD0252B51D052
:1054A00003234297479327E0439B07FB0313303BBB
:1054B0004393CFE75B2B6AD00CD8582BF0D1419A9D
:1054C00042F400724192102242926E2B8CBF042350
:1054D000032310E0632B65D0642BE1D14297F4E7FE
:1054E000702B4BD026D86E2B62D04CD8692BD7D1DD
:1054F00000234293032347936368002B68DD419B9D
:10550000590607D400F01CFD23681A78104442782D
:10551000120764D4479B022B73DC6B46224641A9D9
:10552000304600F01FFA012800F0898002287FF43D
:1055300071AF1DE0752BD1D0782BC0D0732BAFD1BC
:105540000223D8E76368002B0CDD23681A785A45DC
:1055500075D1013362682360459B013A0133626073
:10556000459357E7A19B2146304698470028ECD049
:105570004498002859D14FF0FF305CE0419A42F046
:10558000200241929BE7082342930423B3E7294674
:10559000404600F04FFB419B054643F040034193DA
:1055A0000123A8E7419B43F0400341930023A2E776
:1055B0004198C3063FF52EAF009B459A191D0091F7
:1055C0001B68C0074CBF1A801A6023E7052392E7C7
:1055D000A19B214630469847002890D0C8E7459ABD
:1055E000013245926268013A002A626002DD0133AD
:1055F000236087E7A19B214630469847002881D049
:10560000B6E7042B06DC6B46224641A9304600F083
:105610000BFA88E70E4B002B3FF4FCAE6B4622469C
:1056200041A93046AFF300807DE7A38913F0400F16
:1056300018BF4FF0FF300DF5237DBDE8F08F449883
:10564000F9E700BF015300087B530008826400089B
:10565000000000002DE9F04791461F468A680B695B
:1056600006469342B8BF1346C9F8003091F843206C
:105670000C46DDF8208012B10133C9F800302368F0
:10568000990642BFD9F800300233C9F800302568C6
:1056900015F0060507D104F1190AE368D9F80020CE
:1056A0009B1AAB4229DC94F843302268003318BFC0
:1056B000012392062ED404F1430239463046C047F6
:1056C000013021D02368E56803F00603042B18BFDE
:1056D0000025D9F800204FF0000908BFAD1AA368D3
:1056E000226908BF25EAE5759342C4BF9B1AED18ED
:1056F0001A344D451AD1002008E00123524639469C
:105700003046C047013003D14FF0FF30BDE8F0878D
:105710000135C2E73020E11881F843005A1C94F8A3
:1057200045102244023382F84310C4E70123224685
:1057300039463046C0470130E6D009F10109D8E7C3
:105740002DE9F04301F1430C0C46097E85B06E292A
:105750001746064698460C9A00F0B38022D8632973
:1057600036D00AD8002900F0B980582900F083808B
:1057700004F1420584F8421032E0642901D069291D
:10578000F6D120681368050603F104012AD51B68C9
:105790001160002B03DA2D225B4284F843206F480E
:1057A0000A2239E0732900F09D8008D86F2920D0A3
:1057B0007029DDD1236843F02003236003E07529BD
:1057C00017D07829D4D17823654884F8453055E03E
:1057D000136804F14205191D1B68116084F84230FA
:1057E00001238CE01B6810F0400F116018BF1BB242
:1057F000CFE713682568181D1060280601D51B68BF
:1058000002E06806FBD51B886F2914BF0A22082214
:105810005248002184F843106568002DA560C0F24D
:105820009580216821F004012160002B3DD1002DDD
:1058300040F08E806546082A0BD12368DB0708D527
:10584000236962689A42DEBF302305F8013C05F106
:10585000FF35ACEB05032361CDF800803B4603AA7E
:1058600021463046FFF7F6FE01304DD14FF0FF30B4
:1058700005B0BDE8F083394884F845101368216805
:105880001D1D1B6815600A060BD5CA0744BF41F0F1
:10589000200121601BB9226822F020022260102220
:1058A000B7E74D0648BF9BB2EFE76546B3FBF2F1A1
:1058B00002FB1133C35C05F8013D0B460029F5D10D
:1058C000B9E713682568181D6169106028061B6810
:1058D00001D5196002E06A06FBD5198000236546F0
:1058E0002361B9E71368191D11601D686268002102
:1058F000284600F045FB08B1401B606063682361E7
:10590000002384F84330A7E723692A463946304606
:10591000C0470130AAD023689B0713D4E068039BDB
:105920009842B8BF1846A3E701234A463946304695
:10593000C04701309AD00135E368039A9B1AAB4205
:10594000F2DCEBE7002504F11909F5E7002BACD1F7
:10595000037804F1420584F842306CE78D64000856
:105960009E6400082DE9F04115468A6880460C4681
:1059700032B98A69002A14BF4FF0FF3201228A60CF
:1059800000262268D1065FBF1A68111D19601768CA
:10599000A369DBB1012B07D12B6862691B78D35C4B
:1059A000A3B9002E31D106E0022B07D0002E2CD156
:1059B000A369012B29D10120BDE8F08100F0C0FAD4
:1059C0002B681B78184443781B07EFD423680136F3
:1059D000DA065EBF2B681B783B702A686B6802F1A1
:1059E00001022A60A26803F1FF3302F1FF326B600B
:1059F00058BF0137A26042B1002BC9DCD4F8803116
:105A00002946404698470028C2D0236813F0100367
:105A100005D1E2680132E260A26902B13B702369FC
:105A200000201E442661C7E72DE9F04F0C469A4638
:105A3000744B87B08346164693E8070003ABA7680C
:105A400083E80700704BA169704A04F11C0903291F
:105A500008BF1A467B1EB3F5AE7F84BF40F25D13CC
:105A6000A360236888BF6FF4AE7543F4506323606E
:105A700098BF00274B464FF00008009288BF7F195F
:105A80003168019303AB53F828000222097800F033
:105A900077FA019B30B3B8F1010F5AD162682AB985
:105AA00008212268616042F400722260226822F4B8
:105AB000A0622260A268511EA1609AB132685D1C8A
:105AC000511C316012781A707368013B002B7360AF
:105AD00007DCD4F88031314658469847002840F01A
